:020000040800F2
:1000000068090020F10100081F500008814A00081B
:100010001D5000083F0C00088D6100080000000022
:10002000000000000000000000000000D55400089F
:10003000830D000800000000BB510008A556000811
:100040000B0200080B0200080B0200080B0200085C
:100050000B0200080B0200080B0200080B0200084C
:100060000B0200080B0200080B020008BD0C000880
:10007000C90C0008D50C00080B0200080B02000890
:100080000B02000800000000350A00080B020008FF
:100090000B0200080B0200080B0200080B0200080C
:1000A0000B0200080B0200080B0200080B020008FC
:1000B000215700080B0200080B0200080B02000881
:1000C0000B0200080B0200080B0200080B020008DC
:1000D0000B0200080B020008816100080B020008F7
:1000E000850D00080B0200080B0200080B02000837
:1000F0000B0200080B0200080B02000800000000C1
:10010000000000000B020008000000000B020008C5
:100110000B020008000000000B0200080B020008A0
:100120000B0200080B0200080B0200080B0200087B
:100130000B02000800000000000000000B02000895
:100140000B0200080B020008000000000000000085
:10015000000000000000000000000000000000009F
:100160000000000000000000000000000B0200087A
:100170000B0200080000000000000000000000006A
:10018000000000000B02000800000000000000005A
:10019000000000000000000000000000000000005F
:1001A00000000000000000000B0200080B02000825
:1001B0000B0200080B0200080B0200080000000000
:1001C000000000000B02000800000000000000001A
:1001D0000B0200080B020008DFF810D000F09CFBB7
:1001E00000480047D57C0008AFF300806809002074
:1001F0000648804706480047FEE7FEE7FEE7FEE7C1
:10020000FEE7FEE7FEE7FEE7FEE7FEE71157000820
:10021000D90100082DE9F05F0546002092469B4673
:1002200088460646814640241BE02846414647460C
:10023000224600F0AEF953465A46C01A914110D3F7
:1002400011461846224600F095F92D1A67EB010871
:100250004F4622460120002100F08CF917EB0009DF
:100260004E41201EA4F10104DFDC484631462A46F7
:100270004346BDE8F09F40EA01039B0703D009E035
:1002800008C9121F08C0042AFAD203E011F8013B82
:1002900000F8013B521EF9D27047D2B201E000F8DB
:1002A000012B491EFBD270470022F6E710B513461A
:1002B0000A4604461946FFF7F0FF204610BD2DE917
:1002C000FE4F804681EA0300C00F0C46009021F0EB
:1002D000004123F00045B8EB0200A94105D2404699
:1002E000214690461C460B46024623F00040104330
:1002F00047D0270DC7F30A00C3F30A510290401AF2
:10030000019040286BDAC3F3130040F4801B00987F
:10031000924620B10023D2EB030A63EB0B0B01984A
:100320005946C0F14002504600F024F906460D46F9
:1003300050465946019A00F03CF910EB0800614123
:10034000002487EA115284EAE7731A4340D0009AE6
:1003500062B3019A012A4FEA075215DC001B61EBD8
:1003600002014FF0004202EA0752CDE90042001CB0
:1003700041F5801132462B4600F073F903B0BDE819
:10038000F08F40462146F9E7001B61EB0201001C9B
:1003900041F5801300185B412018A2F5001747EBC8
:1003A000030140EAD570B6196D4111E06D084FEABE
:1003B000360645EAC0754FEA0752001B61EB0201A1
:1003C000001C41F5801149084FEA300000195141E5
:1003D00032462B4603B0BDE8F04F00F033B9009829
:1003E000012240000023D0EB020263EBE07300988F
:1003F00021464FEAE074B8EB000061EB0401E9E745
:1004000083F000435BE781F0004158E72DE9F04DB0
:1004100081EA030404F0004B21F0004514464FF03C
:10042000000A23F0004150EA050220D054EA0102FC
:100430001DD0C5F30A570246C5F31303C1F31300D9
:10044000C1F30A5640F4801543F48013A7EB060865
:10045000101BD64608F2FD3873EB050002D308F1F5
:10046000010801E092185B41B8F1000F03DA0020A7
:100470000146BDE8F08D00204FF480110646844609
:100480000EE0171B73EB050705D3121B63EB050387
:1004900006434CEA010C49084FEA300092185B41D0
:1004A00050EA0107EDD152EA030012D082EA0400BB
:1004B00083EA0501084305D0101BAB4106D2012297
:1004C000002306E000224FF0004302E06FF001023B
:1004D00053101AEB06004CEB085110EB0A0041EBED
:1004E0000B01BDE8F04D00F0ADB800F0004230F077
:1004F00000400AD0C10D01F56071C0F3160042EA58
:100500000151C2084007114370470020014670475F
:1005100001F0004330B421F0004150EA010206D05E
:100520000A0DA2F56072C1F31301002A02DC30BC8F
:1005300000207047440F44EAC104C100E01830BCF9
:1005400000EBC25000F047B830B50B460146002022
:100550002022012409E021FA02F59D4205D303FA85
:1005600002F5491B04FA02F52844151EA2F1010206
:10057000F1DC30BD202A04DB203A00FA02F1002031
:1005800070479140C2F1200320FA03F319439040D1
:100590007047202A04DB203A21FA02F0002170473C
:1005A00021FA02F3D040C2F12002914008431946DB
:1005B0007047202A06DBCB17203A41FA02F043EAC3
:1005C000E07306E041FA02F3D040C2F1200291400C
:1005D0000843194670470029A8BF7047401C4900CE
:1005E00008BF20F00100704710B4B0FA80FC00FA98
:1005F0000CF050EA010404BF10BC704749B1CCF1C3
:10060000200421FA04F411FA0CF118BF012121434E
:100610000843A3EB0C01CB1D4FEA00614FEA102009
:1006200042BF002010BC704700EBC35010440029AB
:10063000A4BF10BC7047401C490008BF20F0010057
:1006400010BC704710B5141E73F1000408DA401C8A
:1006500041F1000192185B411A4301D120F00100E1
:1006600010BD2DE9F04D92469B4611B1B1FA81F2D1
:1006700002E0B0FA80F220329046FFF77BFF04469A
:100680000F4640EA0A0041EA0B0153465A46084326
:1006900013D0114653EA010019D0C8F14002504668
:1006A000FFF777FF05460E46504659464246FFF78C
:1006B00061FF084305D0012004E020463946BDE82B
:1006C000F08D0020054346EAE0762C4337430A9834
:1006D0006305E40AA0EB08000022FD0A44EA47543F
:1006E0000A3002D500200146E9E7010510196941E9
:1006F000DDE9084500196941BDE8F04DA2E72DE9A3
:10070000FE4F81EA030404F0004421F0004100940C
:100710004FF0000B23F0004350EA01045ED052EA90
:1007200003045BD0C3F30A54C1F30A552C44A4F26A
:10073000F3340194A0FB0254C1F3130141F480117E
:10074000C3F3130343F4801301FB024400FB034E85
:10075000840A970A44EA815447EA8357A4FB07684E
:1007600002958D0A05FB07854FEA932C04FB0C5478
:100770002705029D4FEA065847EA1637B5EB0805EC
:100780006EEB070C870E920E47EA811742EA83123E
:10079000A7FB0201B6EB0B0164EB00042B0D43EA4F
:1007A0000C335E1844EB1C50DA465146E7FB02015D
:1007B000C5F313044FEA0B3343EA14534FEA0432F0
:1007C000019C43EA0603A4F10C040294009CCDE9C9
:1007D00000B4FFF746FF03B0BDE8F08F00200146EC
:1007E000F9E770B521F0004303430CD0C1F30A557B
:1007F0000024D5EB040564EB0403D617AD1AB3410E
:1008000002DB0020014670BD201841EB025170BD93
:100810002DE9FE4FC3F30A5701F000450024C1F350
:100820000A56C3F31303C1F3130143F4801312EB0D
:10083000020AA64641F48011009543EB030CA7F190
:10084000010B16E0B0EB0A0061EB0C01071E71F121
:10085000000707DA4FF00008D0EB080085F00045EC
:1008600068EB0101171A73EB0107EBD3761E001832
:1008700049415E45F6DA50EA010209D0CDE900E5CA
:10088000002213460296FFF7ECFE03B0BDE8F08F9E
:1008900020460099F9E70EB5C10F80EAE0700844E0
:1008A000CA07002140F233438DE80E000A460B468A
:1008B000FFF7D7FE03B000BDC1F30A52C1F3130125
:1008C00040F2FF3341F480119A4202DA00200146DF
:1008D000704740F233439A42A2F2334202DC524262
:1008E000FFF757BEFFF746BE30B5041E71F1000496
:1008F00004DB4FF00044404264EB0101141E73F12D
:10090000000405DB1C464FF00043524263EB040336
:10091000994208BF904230BD064C074D06E0E068A2
:1009200040F0010394E8070098471034AC42F6D336
:10093000FFF756FCB08D0008D08D00082DE9F04D72
:1009400000231A461B1A8A4103DB00200146BDE83A
:10095000F08DC1F30A52C1F3130141F480154FF039
:10096000000BD10702D100186D41521E002704462A
:1009700040F2FF11384601EB620A3E4680460246CD
:1009800000204FF48011FFF704FEC2197141BB181B
:1009900046EB0100B4EB030C75EB000C04D3E41A36
:1009A00065EB000517460E46241908F101006D415C
:1009B00080463428E3DDF91946EB0600091BA841FF
:1009C00003D24FF0FF32134601E0002213461BEB27
:1009D000070046EB0A51BDE8F04DFFF733BE70B596
:1009E0008C1810F8015B15F0070301D110F8013BDA
:1009F0002A1106D110F8012B03E010F8016B01F861
:100A0000016B5B1EF9D12B0705D40023521E0DD4B8
:100A100001F8013BFAE710F8013BCB1A921C03E006
:100A200013F8015B01F8015B521EF9D5A142D8D33E
:100A3000002070BD10B5044801F0CCF9BDE81040AD
:100A4000024801F0C7B900007C010020E801002045
:100A500010B5846AE16D11F0500F06D0E16DC90642
:100A600025D5204601F0B5F910BDE06D40F40070C9
:100A7000E06520680168090716D504F014F878B11C
:100A80002068C068800400280ADBE06D20F48070D4
:100A9000E065E06DC00403D4E06D40F00100E06566
:100AA000204600F057FD10BDC0688007EBE7616D80
:100AB000496BBDE81040084710B5806AC16D41F030
:100AC0004001C165016E41F00401016601F081F948
:100AD00010BD10B5806A01F07BF910BD70B50446F9
:100AE000006881688268C1F3400112F0010F28D0CC
:100AF00039BB816801F00D01012914D18168124AC6
:100B00001140891C816021680320086002F076F999
:100B1000054612E002F072F9401B02280DD9206848
:100B20008068C00709D0E06D40F01000E065206EDD
:100B300040F001002066012070BD20688068C00779
:100B4000E8D1002070BD0000C0FFFF7FF8B504466B
:100B5000002000902068816811F0010F41D1816868
:100B6000214A11422ED18168D5432940491C816018
:100B70001E48806800F0E07000020DD51C481D4939
:100B80000068B0FBF1F0401C00EB4000800000E08A
:100B9000401E00900028FBD102F030F906461BE011
:100BA000816811F0010F03D181682940491C8160DF
:100BB00002F024F9801B02280ED920680068C04387
:100BC000C00709D0E06D40F01000E065206E40F0F5
:100BD000010020660120F8BD20680168C943C907EB
:100BE000DED10020F8BD00003F000080000300506F
:100BF00038000020400D03003CB505460C46684611
:100C000005F004F89DED010AD4ED010A94ED001AF7
:100C100020EE200ADDED000A00EEC10A85ED000A93
:100C20009DED000AD4ED010A94ED001A20EE200A91
:100C3000DDED010A00EE810A85ED010A3CBDFEE70B
:100C4000D0EC020AB6EE000A41EE400A90ED021A1C
:100C500041EE400A9FED0A0A60EE800AC1ED000AEB
:100C600090ED011ADFED070AD0ED021A21EE201AED
:100C700001EEE01A21EE000A81ED010A7047000042
:100C8000ABAA2A3FD7B35D3F00B587B001200090E3
:100C900000204FF40021CDE904016021069102906B
:100CA000039001906946044801F024FC002800D01C
:100CB000012007B000BD000014030020014801F02E
:100CC000DCBC000054020020014801F0D6BC00004A
:100CD000B4020020014801F0D0BC000068040020EC
:100CE0000D4902688A4201D20C4901E00B492031CA
:100CF000D2B21423083AB2FBF3F2436C02F01F02A3
:100D000023F003031944816404498031C164012143
:100D1000914001657047000008040240000802404D
:100D20000179074A02EB81024265054A4432491EB5
:100D3000826501F01F0201219140C16570470000EA
:100D4000FC08024030B5D0E913456560446D14B12C
:100D5000D0E91645656090F8444004F01F05012471
:100D6000AC40056C6C60046863608368102B03689A
:100D700003D099600068C26030BD9A600068C160AD
:100D800030BD70474FF4005001F0F6BE72B6FEE77A
:100D9000144A117F1448012901D003290FD1036897
:100DA00023F400730360036843F400630360036883
:100DB00023F400630360036843F4007303600229B3
:100DC00001D003290BD1016841F480510160016811
:100DD00021F480510160016841F4806101600020CC
:100DE000107770471800002000200240C107054816
:100DF00003D0416941F004014161416941F480310E
:100E0000416170470020024008494A69C0B222F49B
:100E1000FC7242EAC0004861486940F00200486143
:100E2000486940F48030486170470000002002406B
:100E3000054910B54C6944F001044C610260BFF3F0
:100E40006F8F436010BD000000200240094A10B5BA
:100E50005469402344F480245461EFF3108272B645
:100E600010C95B1E10C013F0FF03F9D182F3108884
:100E700010BD00000020024070B5064601F0BEFF24
:100E80000546134C07E000BF01F0B8FF401BB0421D
:100E900001D9032070BD2069C003F5D420694CF24C
:100EA000FA3108400CD00B494A6802434A60810F6E
:100EB00001D0A169A161810000D02061012070BD35
:100EC0002069C00701D001202061002070BD000012
:100ED000002002401800002018220149FFF7CBB97A
:100EE00000F8010870B586B0054601F093FD0020BA
:100EF00000903F2002900120039004A9684601F071
:100F0000BFFC68B9084E002405EBC40006EBC40121
:100F1000D0E90023002001F02BFD641C032CF3D347
:100F200001F018FD06B070BD00F8010810B5FFF71C
:100F3000ABFE184802F0A2FE0021174802F0DEFFC7
:100F40000021144803F032FA0421124803F02EFA6B
:100F50000821104803F02AFA7F21104800F02CF8ED
:100F600004220F490D4801F04DFA7F210D4800F091
:100F700023F802220C490B4801F044FA0B492120C6
:100F800008630B48FFF7A8FFBDE81040094804F0CC
:100F900047B800003C030020880300207C010020AB
:100FA0006C010020E801002000000020000001404A
:100FB0002401002000050020F8B500260446009614
:100FC00090F858000D4601280BD0012084F85800F5
:100FD0002046FFF783FD0100E06D04D040F01000D3
:100FE0002AE00220F8BD20F4885040F00200E065BD
:100FF00020688268134B1A4005F080431A4342F080
:1010000000428260104A20680EE0009B5B1C009347
:10101000934209D3E06D20F0020040F01000E0653B
:1010200084F858600120F8BD8368DB0FEDD1E06DD6
:1010300020F0020040F00100E06584F858600846A6
:10104000F8BD0000C0FFFF3F02DE0400704770479C
:1010500070477047704700002DE9F047044690F84C
:1010600058009CB00E464FF00009012815D0012011
:1010700084F8580000251795189520684FF0A0486F
:1010800040450ED1284F0097384603F008FD8246B0
:10109000206803F004FD60B10EE002201CB0BDE842
:1010A000F087E06D40F02000E06584F858500120A2
:1010B000F4E7BAF1000F09D0E06D40F02000E065E0
:1010C0004FF0010984F858504846E7E7174832685E
:1010D00040F61F71002A826822F4604216D094F80C
:1010E000383042EA433273681A438260D8F80820E5
:1010F000BB6802F0010203F001031A43E2D1B368B6
:1011000032681A4383688B431A430BE08260D8F835
:101110000820BB6802F0010203F001031A43D1D199
:1011200082688A438260CDE70001005000030050CE
:101130002DE9F84F00270446009790F85800DFF893
:10114000E0930D46B846012811D0012684F8586076
:10115000206803F0A0FC60B1E06D40F02000E06585
:101160005FF0010784F858803846BDE8F88F022008
:10117000FBE7D5E900210C23206803EA911318440A
:10118000036B01F01F014FF01F0C0CFA01FCC2F3BE
:10119000846223EA0C038A4013430363206803F04C
:1011A0007AFC8246206803F072FC5AEA00003CD1C7
:1011B000AA6829682068B2F1004F37D003F07BFCA1
:1011C0002068416921F00041416120686969C26875
:1011D000C2F3C102520091402A69042A31D000EBC7
:1011E00082002B68026EDFF83CC303F0F84302EA8A
:1011F0000C020B431A4342F00041016620682A6941
:10120000A96900EB8200026E22F080720A43026636
:10121000297F22682869012910D0002102EB800073
:10122000026E22F000720A4302667DE0002203F0A3
:1012300042FC2068416941F00041C5E74FF0007170
:10124000ECE7002103F01DFC400320684FF0000193
:1012500072D003F016FC90FAA0F0B0FA80F1286882
:1012600042036ED090FAA0F0B0FA80F0814204D12F
:1012700000221146206803F02DFC0121206803F0B4
:1012800000FC400320684FF001015DD003F0F9FB42
:1012900090FAA0F0B0FA80F12868420359D090FA91
:1012A000A0F0B0FA80F0814204D100220121206830
:1012B00003F010FC0221206803F0E3FB40032068E8
:1012C0004FF0020148D003F0DCFB90FAA0F0B0FA36
:1012D00080F12868420344D090FAA0F0B0FA80F080
:1012E000814204D100220221206803F0F3FB032194
:1012F000206803F0C6FB400320684FF0030133D0A1
:1013000003F0BFFB90FAA0F0B0FA80F12868420326
:101310002FD090FAA0F0B0FA80F0814204D10022E0
:101320000321206803F0D6FB2068816811F0010FCB
:1013300022D0ACE000E004E003F0A3FBC0F3846142
:101340008DE7C0F3846091E703F09BFBC0F38461F9
:10135000A2E7C0F38460A6E703F093FBC0F38461C7
:10136000B7E7C0F38460BBE703F08BFBC0F3846195
:10137000CCE7C0F38460D0E72A7B296850F8B03FFF
:10138000C1F3120C23EA0C0302F0180C664A22FA8D
:101390000CF20A4013430360E968494577D1286895
:1013A00041031CD090FAA0F1B1FA81F1491C01F07F
:1013B0001F0109294FEA403132D8002912D000BF5D
:1013C00090FAA0F1B1FA81F101F1010101F01F01E0
:1013D00006FA01F609D100BFC0F3846109E0C0F349
:1013E0008461E3E7C0F38461EEE790FAA0F1B1FA1B
:1013F00081F101F1010101F01F0146EA816102D191
:10140000C0F3846003E090FAA0F0B0FA80F000F13D
:10141000010000F01F0000EB400041EA005132E003
:1014200000290ED090FAA0F1B1FA81F101F1010189
:1014300001F01F0106FA01F606D100BFC0F3846176
:1014400006E0C0F38461F1E790FAA0F1B1FA81F10E
:1014500001F1010101F01F0146EA816102D1C0F3EF
:10146000846003E090FAA0F0B0FA80F000F101008F
:1014700000F01F002D4A00EB400002EB005041EA53
:10148000000141F00071AA68206803F014FB2848AD
:101490002A6802423FF466AE26488168264B01F076
:1014A000E0719A4202D0254B9A421CD10B021AD409
:1014B0002268B2F1A04F7FF455AE826841F400017A
:1014C00022F0E0720A4382601D481E490068B0FBAA
:1014D000F1F0401C00EB4000800000E0401E009056
:1014E0000028FBD13EE6184D184BAA4207D1CD018A
:1014F00005D422689A42F5D041F0807109E0144D7C
:10150000AA42EFD14A02EDD422689A42EAD041F4CD
:101510008001826822F0E0720A43826022E60000C5
:1015200000007F4000F0FF03FFFF0700000020FEE7
:101530000000088000030050000021C31000C0908C
:1015400038000020400D0300000052C70001005089
:10155000000084CB2DE9F04FFF492DED068B83B0C1
:1015600088427CD1FD4CDFF8F88394ED0C0A84EDC1
:101570000E0A94ED0D0A84ED0F0A94ED060A84ED2F
:10158000080A94ED070A84ED090AD8F800104942C8
:1015900000EE101AA4F10C01B8EEC00AD1ED000A59
:1015A00070EE200A9FEDEF0A80EE801A84ED101A8B
:1015B000D8F8042091ED011A524200EE902AF8EE7C
:1015C000E00A70EE810A80EE801A84ED111AD8F8D4
:1015D000080091ED021A404200EE900A3C310A46A2
:1015E000F8EEE00A01F1100070EE810A80EE801A38
:1015F00084ED121AFFF724FB94ED000A04F1280190
:10160000104603F0B7FDA4F148056868401C0027A8
:101610009FEDD58A6860B0F5FA6F02DD6F6084EDEA
:10162000028A4FF08040406A00EE100AF8EE400A4D
:101630009FEDCE1AF1EE08AA80EE810AD4ED020ADF
:1016400020EE2A0A20EE200A85ED020AD4ED010AD6
:1016500030EE800A10EE100AFEF747FF00E04BE084
:1016600041EC100B9FEDC21B04F0CAFD51EC100BB6
:10167000FEF74EFF206003F0A1FD6A78DFEDBE5A51
:10168000B648B0EE086A00F11006DFEDBC9A9FED97
:10169000BCAA00F14C0100F1680B00F1840A42F28F
:1016A00010799FEDB89A1830F7EE008ACDE9000165
:1016B000072A7DD2DFE802F004508AECFDFCFB0033
:1016C0006A694FF47A71B0488A421ADA521C6A6128
:1016D0000268D8F800301A4402604268D8F8043032
:1016E0001A4442608268D8F808101144A74A816001
:1016F000C16812681144C16003B0BDEC068BBDE83F
:10170000F08F026892FBF1F200EE102A934AB8EED5
:10171000C00A0C3A82ED000A436893FBF1F300EE35
:10172000103AB8EEC00A82ED010A836893FBF1F12A
:1017300000EE101AB8EEC00A82ED020A90ED030A1C
:10174000B8EEC00ADFED920A062020EE200A84EDF2
:10175000350A6F616870CFE76869401C6861B0F551
:10176000FA7F0CDB6F6184ED078A94ED060AD4EDF5
:10177000350A9FED881A00EE810A84ED060A00986A
:1017800003F0AAFE206BB0F17C5FB5DD02206F6133
:1017900068707D4894ED060A1438DFED7F0A70EE1C
:1017A000200A80EC020A70EE250AC0ED020A00E071
:1017B000EAE2DFED7A0A70EE200AC0ED030ADFEDFF
:1017C000780A30EE200A80ED040A95E76A694946F6
:1017D00092FBF1F098B3012837D0831E042B39D83F
:1017E000694B84ED078A143B03EB800342F22836F1
:1017F00013ED020A92FBF1F301FB132384ED060AB9
:10180000B34233DB92FBF1F394ED100AD5ED060AF7
:1018100009FB132130EE200AA1F51C520F3A85ED89
:10182000060A23D1DFED5F0A574980EE201A1031F6
:1018300001EB800000ED021A85ED068A16E0FFE755
:1018400084ED076A84ED068A10E084ED078A84ED52
:10185000066A0BE04C49143901F1240003F002FD43
:10186000DFED510A30EE600A84ED280A4F496869BD
:10187000884202DA401C686102E003206F616870F0
:10188000009803B0BDEC068BBDE8F04F03F024BE1A
:10189000696991FBF9F0E8B301285BD0801E042848
:1018A00059D80A2091FBF0F200FB121002E0D1E1BE
:1018B00044E1CFE000EE100ADFED3D0A3146B8EE1C
:1018C000C00A20EE200AF0EE000AC4ED040A84EDFE
:1018D000058A0098FFF790F9009803F0FDFDD4ED1C
:1018E0000C0A94ED0E0A94ED0F1AD4ED282A30EE6E
:1018F000C02AD4ED0D0A94ED313A70EEC11AD4ED40
:10190000080A42EEC00A94ED090A02EEC10AD4EDBB
:10191000302A00E079E083EE221A20EEA03A61EE50
:10192000013A23EE834AF0EE683A43EE013A84EE40
:10193000233A31EE433A84ED313A94ED2E1A23EEF8
:10194000203A00EEC12A03EE021A84ED2E1A94ED1D
:10195000322A2FE062E051E07C0100208400002068
:101960006C010020E305324400000000E81F224D16
:101970000000000000807640CDCC4C3E95BF563430
:10198000BD37863517B7D138DC04002000000020B1
:10199000A4BA63376F12833ACDCCCC3D9A99993E65
:1019A000CDCCCC3E00007A4448E13A3F70110100B2
:1019B00000001042C2EE220A20EE002A60EEA02AA9
:1019C00022EE823AF0EE682A42EE202A83EE222AA4
:1019D00030EEC22A84ED322AD4ED2F0A22EE002AFC
:1019E00040EE601A89EE010A42EE210AC4ED2F0A88
:1019F00084ED290A89EE200A84ED2A0AE6496869FD
:101A0000884217DA401C686176E694ED350A20EECC
:101A1000250A84ED070A84ED068A07E084ED078A2B
:101A200094ED350A20EE250A84ED060A009803F0AD
:101A300053FDE3E704206F61687084ED139AC4EDF1
:101A4000149AC4ED1A8A84ED1B8A84ED219A84EDE0
:101A500022AA51E6D1496869884232DA401C68619D
:101A6000C4ED04AA84ED058A94ED000A314600987D
:101A7000FFF7C2F8009803F02FFD94ED020ADFEDA6
:101A8000C80A94ED281AD4ED0A1A60EE200A94EDE3
:101A9000040AC449686901EE610A94ED291AD4ED7B
:101AA0000B1A014421EE201A494501EE610A80EE2D
:101AB000201AA9D295ED070A30EE010A85ED070A32
:101AC0001AE603F039FB94ED020AB5EEC00AF1EE16
:101AD00010FA99D105206F61687095ED070ADFED66
:101AE000B20A80EE201A84ED2B1A85ED078A84ED68
:101AF000048A84ED058A84ED068A84ED078A84EDE4
:101B0000178A84ED198A84ED1E8A84ED208A84ED7B
:101B1000258A84ED278A84ED139AC4ED149AC4EDC6
:101B20001A8A84ED1B8A84ED219A84ED22AA03B0DF
:101B3000BDEC068BBDE8F04F03F0E2BADFED9B0A87
:101B4000C4ED030A94ED020A019803F089FAD4ED7A
:101B5000190A94ED0A0A584603F082FA94ED0B0A2A
:101B6000F0EE480A504603F07BFA94ED200A314625
:101B700084ED040A94ED270A84ED050A94ED000A29
:101B80000098FFF739F8009803F0A6FC94ED0A0AD4
:101B9000D4ED2B0A20EE200AD5ED080A20EE060A25
:101BA00020EE090A30EE800A85ED080AD4ED020A1B
:101BB0009FED7F1A94ED302A44F6206160EE811A81
:101BC00094ED331AC1EE020A20EE001A20EEA02A8C
:101BD00062EE012AB0EE682A01EE202A82EE821A15
:101BE00070EEC10AC4ED330A95ED091A60EE800A61
:101BF00040EE411A00EEA11A85ED091A6869884283
:101C0000FFF600AF88EE810A062084ED2C0AC5EDB0
:101C1000098A6F61687003F08FFA00220421654819
:101C200001F0E7F86448FFF75DF984ED048A84ED7C
:101C3000058A84ED068A84ED078A84ED178A84ED8F
:101C4000198A84ED1E8A84ED208A84ED258A84ED2C
:101C5000278A51E528695949401C2861884200DBE0
:101C60002F612878564F012804D002281BD0032862
:101C700041D150E0296991FBF9F209FB121018B922
:101C800004214C4801F0ADF8D8F80C0007EB4000F7
:101C900000EE100AF8EEC00A9FED4A1A80EE810AA3
:101CA00020EE2A0A1CE0286941F2883190FBF1F20B
:101CB00001FB120018B904213E4801F092F8D8F84F
:101CC0000C0007EB400000EE100AF8EEC00AC4ED6D
:101CD000030A94ED020A019803F0C2F994ED190A7F
:101CE00084ED040A94ED000A31460098FEF784FF63
:101CF000009803F0F1FBD4ED0D1A94ED0C1AD4ED1D
:101D0000070A94ED060A03B02F48BDEC068BBDE828
:101D1000F04F05F0DBBE286940F2E24190FBF1F2A2
:101D200001FB120018B90421224801F05AF8D8F832
:101D30000C00254D07EB400000EE100AF8EEC00A3B
:101D4000C4ED030A95ED0D0A019803F089F9D4ED6D
:101D5000190A94ED0A0A584603F082F994ED0B0A29
:101D6000F0EE480A504603F07BF994ED200ADFEDCF
:101D7000170A84ED040A94ED270A84ED050A95ED0F
:101D80000A0A20EE200AAFE703B0BDEC068BBDE8DF
:101D9000F04F03F0D1B9000070110100A0860100DE
:101DA0005077563E70A0FEFF00401C4600803B4529
:101DB0005077D63D0004004824010020400D030068
:101DC00001F0FFFF00F07F4500050020E12E654295
:101DD000704770472DE9F05F044600680668456863
:101DE000DFF854B2DBF8080000F01F07B0070ED58B
:101DF000A8070CD5E06DC00603D4E06D40F4006088
:101E0000E0652046FFF722F9216802200860DFF82C
:101E10002CA270074FF0A04801D5680703D4300703
:101E200037D5280735D5E06DC00603D4E06D40F402
:101E30000070E065206802F036FE20B3206850454F
:101E400001D1424600E00246824208D03FB1052F50
:101E500005D0092F03D0504503D1414602E0C168A7
:101E600001E00146C96889040DD4016809070AD553
:101E700002F011FE58B3E06D40F01000E065206EF6
:101E800040F0010020662046FFF764FB21680C202B
:101E90000860B00601D5A80603D4700658D56806B8
:101EA00056D5E06DC00603D4E06D40F40050E06507
:101EB0002068C16C11F4C07F1AD00021894602F05D
:101EC000F2FD02462068504514D1434613E02068D5
:101ED000416821F00C014160E06D20F48070E06504
:101EE000E06DC004CFD4E06D40F00100E065CAE7CA
:101EF0000121E3E70346834208D03FB1062F05D016
:101F0000072F03D0504503D1414602E0C16801E0EC
:101F10000146C968B9F1000F14D08B0102D58AB10E
:101F20008A040FD4026852060CD589020AD402F042
:101F3000AEFDE8B3E06D40F01000E065206E40F0CB
:101F4000010020662046FFF782F8216860200860C3
:101F500030060BD5280609D5E06D40F48030E065E9
:101F6000204600F067F9216880200860F0050CD554
:101F7000E8050AD5E06D40F40030E0652046FFF743
:101F800068F821684FF480700860B0050CD5A8058A
:101F90000AD5E06D40F48020E0652046FFF75AF84E
:101FA00021684FF400700860F0062ED5E80600E0C6
:101FB00008E02AD5E06BD0B1AFB1DBF8080000F43F
:101FC000604013E02068416821F060014160E06DED
:101FD00020F48050E065E06DC005B3D4E06D40F0C2
:101FE0000100E065AEE72068C068C00750B1E06D51
:101FF00040F48060E065206E40F0020020662046DC
:10200000FFF7E7FE216810200860700512D568050B
:1020100010D5E06D40F48040E065206E40F008008F
:10202000206621684FF4806008602046BDE8F05FBC
:10203000FFF70EB8BDE8F09F00030050000100500C
:10204000F8B54FF0000504002E46009502D0E06D73
:1020500010B107E00120F8BD204600F0EDF826663B
:1020600084F8586020688168C1F3407119B18168B3
:10207000684A1140816020688168C1F3007189B9A4
:102080008168654A114041F080518160634864492C
:102090000068B0FBF1F04000801C00E0401E0090A2
:1020A0000028FBD120688168C1F3007141B9E16D5E
:1020B00041F01001E165216E41F001012166012529
:1020C00002F0E9FCE16DC90600D430B1E06D40F0EA
:1020D0001000E06501252846F8BDE06D20F4807011
:1020E00040F00200E0652068806810F0010F11D117
:1020F0004FF0A04080684B4900F00100896801F072
:102100000101084306D148486168826822F47C12C4
:102110000A438260E168E06B627F0843A16841EA9C
:102120004231084394F8241040EA0140012904D1C7
:10213000218D3E4A02EB41410843E16A29B101F495
:102140007871226B014342EA01002268D168384B62
:1021500019400143D16020680169626B21F0406140
:1021600011430161206802F092FC70BB207F94F85B
:102170003810800340EA41022168C86844F2020333
:1021800098431043C86020690028206801690AD07C
:1021900041F480310161206850F8C01F22696FF35B
:1021A0000D01114307E021F480310161206850F8EE
:1021B000C01F6FF30D01016094F8400001280CD09E
:1021C0002068016921F0010101616069012820682E
:1021D000016B21F00F0111D013E0D4E91101084384
:1021E000D4E913121143084321680A6940F2FC73D1
:1021F0009A43104340F001000861E6E7226A521E4C
:1022000011430163E06D20F0020040F00100E06541
:1022100061E70000C0FFFF5FC0FFFF7F38000020C4
:10222000400D030000010050000300500000FEFFBD
:102230000740F0FF704700002DE9F04F97B00646C9
:1022400014216846FEF730F8442105A8FEF72CF863
:102250004FF40040316800258203DFF88C810327AA
:10226000624C4FF002094FF0800A4FF4007BB1F14D
:10227000A04F12D05E4B994271D11492059005A8DF
:1022800000F0BAFE08B1FEF781FDD8F80000401C4E
:10229000C8F80000012865D06CE01492059005A8EC
:1022A00000F0AAFE08B1FEF771FDD8F80000401C4E
:1022B000C8F80000012807D1E06C40F40050E06449
:1022C000E06C00F400501690E06C40F00400E06414
:1022D000E06C00F004001690E06C40F00100E06457
:1022E000E06C00F001001690E06C40F00200E06449
:1022F000E06C009700F002001690CDE90175694688
:102300003C4800F045FC0120CDE9000769460295F4
:102310004FF0904000F03CFCCDF80090CDE9017505
:102320006946354800F034FC354C344820600520BF
:10233000C4E901054FF40060C4E905B0C4E9035ADB
:102340002020C4E90705204647E0746500221146B5
:102350001220A66200F0B8FD122000F0A7FD17B011
:10236000BDE8F08FE06C40F40050E064E06C00F4F5
:1023700000501690E06C40F00400E064E06C00F067
:1023800004001690E06C40F00100E064E06C6946E7
:1023900000F0010016900420CDE9000702951548D1
:1023A00000F0F6FBCDF80090CDE9017569464FF0DD
:1023B000904000F0EDFB124C104860341430206067
:1023C0002420C4E901054FF40060C4E905B0C4E964
:1023D000035A2020C4E90705204600F0ABF9002885
:1023E000B3D0FEF7D3FCB0E7080000200010024095
:1023F00000010050000800480004004808000240A6
:10240000540200202DE9F04104463448174688461E
:10241000806800F01F05206802F03DFB00285AD1BB
:1024200094F85800012856D0012084F8580000265E
:1024300025B1052D02D0092D00D003E02046FEF77E
:1024400085FB18B184F85860BDE8F081E06D40F676
:102450000161884340F48070E0652149206888422A
:1024600002D14FF0A04100E00146814200D01DB9E9
:10247000E06D20F48010E065E06DC00404D5206EAE
:1024800020F00600206600E02666616D1548C862EF
:10249000616D15480863616D1448486321681C200C
:1024A000086084F858602068416841F0100141607C
:1024B0002068C16841F00101C16021683B46424685
:1024C0004031606D00F096F921688A68084B1A4027
:1024D000121D8A60B8E70220B6E700000003005032
:1024E00000010050510A0008D30A0008B90A000888
:1024F000C0FFFF7F30B590F821300022012B06D0BD
:10250000416A41F0020141620122104630BD8C69EE
:102510000B680D6923434C6800682C4323434C69C6
:1025200023438C68C96823430B430168024C214054
:102530000B430360E9E7000000F887FF70B5040073
:1025400004D094F82100002510B106E0012070BDF0
:1025500084F82050204600F00BF865626560A560A5
:10256000E56025610120656184F82100002070BDCF
:1025700008B500680649884208D10648816C41F0D8
:1025800008018164806C00F00800009008BD000024
:10259000000C02400010024010B590F825300021D8
:1025A0000122022B03D00421C163012122E0036830
:1025B0001C6824F00E041C60836C1C6824F4807476
:1025C0001C6003681C6824F001041C6090F844300F
:1025D000046C03F01F0302FA03F36360D0E91334C1
:1025E0005C60436D33B11C6824F480741C60D0E9D6
:1025F00016345C6080F82520002280F824200846EC
:1026000010BD70B590F82520002401212346022A30
:1026100007D00422C26380F8251080F824300124FA
:1026200029E00268156825F00E0515600268156836
:1026300025F001051560826C156825F4807515601C
:1026400090F84420056C02F01F0201FA02F26A6061
:10265000D0E913255560426D32B1156825F48075B7
:102660001560D0E91625556080F8251080F82430D3
:10267000816B01B18847204670BDF0B4016C0C68D5
:1026800001680D6890F8442002F01F06042202FA47
:1026900006F3234211D06B070FD50B689B0603D4BA
:1026A0000B6823F004030B6090F8441001F01F0145
:1026B0008A40016C4A60016B1DE0022303FA06F7B1
:1026C00027424FF0000C4FF0010218D0AF0716D58B
:1026D0000C68A40605D40C6824F00A040C6080F889
:1026E000252090F8441001F01F018B40016C4B60D5
:1026F00080F824C0C16A00291AD0F0BC084708231A
:10270000B340234214D02B0712D50B6823F00E03DD
:102710000B6090F84410036C01F01F0102FA01F104
:102720005960C26380F8252080F824C0416BE2E73D
:10273000F0BC704770B504000CD02B4A21681420FF
:10274000914209D2294A0A44B2FBF0F08000606449
:1027500027480AE0012070BD234A52420A44B2FBD6
:10276000F0F080006064204808382064022084F87B
:1027700025000A6847F6F0708243D4E90203184343
:10278000D4E904352B431843A3691843E36918437C
:10279000236A1843104308602046FEF7A1FAA06898
:1027A0000025B0F5804F00D16560A16C20790860EC
:1027B000D4E9130141606068401E032808D8204610
:1027C000FEF7AEFA606D0560D4E91601416002E0E3
:1027D0006565A565E565E563012084F8250084F855
:1027E0002450002070BD000008040240F8FFFDBF27
:1027F0000000024070B5044690F82400002501282E
:102800000CD0012084F8240094F825600020012ECB
:1028100006D084F824000225284670BD022070BD31
:10282000022684F82560E0632068066826F0010629
:1028300006602046FEF786FA206B002820680168B3
:1028400002D041F00E0106E021F004010160206891
:10285000016841F00A010160A06C0168C90303D559
:10286000016841F480710160606D18B1016841F444
:10287000807101602068016841F001010160CBE7CF
:102880002DE9F05F054631488946017801290CD0D1
:102890000126804606704FF47A7B5846FEF7ECFA24
:1028A00007004FF0000A03D04BE00220BDE8F09F84
:1028B00051464046C8F804A0254C226892050AD526
:1028C0002168490505D5216821F480612160032133
:1028D00009E0067708E02268520504D5216821F452
:1028E00080612160022101772868012805D04FF01E
:1028F000FF31C9F80010AE681CE06868FEF776FA90
:102900005846FEF7B9FA0746606920F00400606196
:1029100015E030466968FEF777FA5846FEF7ACFADC
:102920000700606920F4FD70606102D0C9F80060A2
:1029300005E0761CD5E902010844B042E9D8FEF76B
:1029400027FA88F800A03846B0E7000018000020F9
:1029500000200240054901204A6942F000424A61D4
:102960004969002900DA0020704700000020024079
:102970002DE9FF5F254C0646904620789A460128AF
:102980000BD0012020704FF47A7B5846FEF774FA82
:1029900007004FF0000904D02AE0022004B0BDE88F
:1029A000F09F4846C4F80490194D2968490504D59C
:1029B000286820F4806028600220207726B1012E4C
:1029C00009D0022E07D00CE0424653460198FEF78C
:1029D0002FFA012612E041460198FEF737FA022E3F
:1029E0000AD05846FEF748FA4FEA0007FEF7D0F93A
:1029F00084F800903846D1E74FF480265846FEF719
:102A00003BFA07466869B0436861EFE718000020A9
:102A100000200240064900204A69002A07DA054AD8
:102A20008A60054A8A604969002900DA01207047F6
:102A30000020024023016745AB89EFCD2DE9F0412D
:102A4000434D2DED028B687806282AD14FF40051B2
:102A5000404800F0C1F9012820D000F0CFF9296BDF
:102A60000026401A3C4FF7EE008A05F14804B0F505
:102A70007A7F4ED22878401C287002F041FB2878DB
:102A8000032800D92E7028789FED348A68B19FED15
:102A9000340A022811D0032826D115E000F0AEF93F
:102AA0002863BDEC028BBDE8F08102F045FB0022FB
:102AB0000421384600F09DF916E0DFED2A0AC4ED46
:102AC000130A84ED140A0FE0DFED270A9FED271AA1
:102AD000C4ED130A84ED141AC4ED1A8A84ED1B8A1E
:102AE000C4ED210A84ED220A84ED048A84ED058A6E
:102AF00084ED068A84ED078A84ED178A84ED198AAD
:102B000084ED1E8A84ED208A84ED258A84ED278A4F
:102B1000C7E701209FED160A687084ED310A84ED45
:102B2000320A84ED330A9FED130A024684ED300A1F
:102B3000C4ED2E8AC4ED2F8A2E700421384600F091
:102B400058F9BDEC028BBDE8F04102F0D9BA0000A3
:102B50003C0000200008004800040048000000007D
:102B6000BD3786356F12833A17B7D13895BF5634C3
:102B70000050C347A4707D3F044910B50A68024263
:102B800002D00860FFF75AFF10BD00001404014096
:102B90002DE9F04FDFF82092002301260324A9F14C
:102BA000040B85B00F2709F1040AABF1040EFAE01B
:102BB00006FA03F52A407CD091F804C00CF0030C0F
:102BC000BCF1010F02D0BCF1020F26D1D0F808C031
:102BD000CDF800C04FEA430C04FA0CF8CDF810C051
:102BE000DDF800C02CEA080CCDF800C0D1F80C804C
:102BF000DDF810C008FA0CF8DDF800C048EA0C084F
:102C0000C0F80880D0F804C02CEA050C0D79C5F393
:102C100000159D4045EA0C0545600D79ED43AD0773
:102C20000ED0C5684FEA430804FA08FC25EA0C05F3
:102C3000D1F808C00CFA08FC4CEA050CC0F80CC02E
:102C40000D7905F00305022D16D1DD0800EB850C8A
:102C5000CDF808C0DCF820805D074FEAD56C07FA94
:102C60000CF528EA05080D6905FA0CF5DDF808C031
:102C700045EA0805CCF8205005684FEA430CCDF82A
:102C800008C004FA0CFC25EA0C0591F804C00CF00D
:102C90000308DDF808C008FA0CF848EA0508C0F88F
:102CA00000804D6815F4403F7CD0444DD5F860C09D
:102CB00000E077E04CF0010CC5F860C02D6E23F009
:102CC000030C05F0010500953D4D65440295AD6886
:102CD0004FEA837C4FEA1C7807FA08FC25EA0C05CA
:102CE000B0F1904F06D0DFF8DCC0604505D14FF061
:102CF000010C20E04FF0000C1DE0DFF8CCC0604577
:102D000002D14FF0020C16E0DFF8C0C0604502D1DE
:102D10004FF0030C0FE0DFF8B8C0604502D14FF070
:102D2000040C08E0DFF8ACC0604502D14FF0050CA0
:102D300001E04FF0060C0CFA08FC4CEA050C029D71
:102D4000C5F808C0D9F80050CC46D1F804809543A6
:102D50005FEAC82800D51543CCF80050DAF80050D7
:102D6000D446D1F8048095435FEA882800D51543FE
:102D7000CCF80050DBF80050DC46D1F804809543D5
:102D80005FEA883800D51543CCF80050DEF80050D3
:102D9000F446D1F8048095435FEAC83800D515435E
:102DA000CCF800505B1C0A6832FA03F57FF400AFE0
:102DB00005B0BDE8F08F000008040140001002409B
:102DC000000001400004004800080048000C0048D2
:102DD00000100048001400480069084000D001209D
:102DE0007047426921EA02030A4043EA02418161D5
:102DF00070470AB1816170478162704701488068FD
:102E0000704700000C0000200248816842681144AD
:102E1000816070470C00002010B50024032000F0F2
:102E200073F80F2000F008F808B1012401E000F069
:102E300025F8204610BD000070B50E4E0546002452
:102E4000706898B14FF47A71B1FBF0F00A490968E3
:102E5000B1FBF0F000F060FD40B9102D06D2002269
:102E60002946501E00F030F8356000E0012420466D
:102E700070BD00000C000020380000200A4882B01D
:102E8000016E41F001010166016E01F00101009146
:102E9000816D41F080518165806D00F0805000901F
:102EA00002B000F0A1B8000000100240002809DBC9
:102EB00000F01F02012191404009800000F1E02054
:102EC000C0F8001170470000F0B40E4B1B680C46B0
:102ED000C3F30223C3F10705042D00D90425191DEE
:102EE000072901D2002300E0DB1E012606FA05F1C6
:102EF000491E214099409E40761E16403143F0BC49
:102F000003F06EB90CED00E0064900F00702086816
:102F10004FF6FF03184040EA0220034A10430860BE
:102F2000704700000CED00E00000FA052B492C4B27
:102F30000A6832214A432B4940B1B0F5007F086846
:102F400029D020F4C06040F480602CE00868C0F311
:102F50004120022804D051F8800F20F4807022E034
:102F6000D1F8800020F48070C1F88000086820F457
:102F7000C06040F400700860B2FBF3F0401C00E059
:102F8000401E4A69520501D50028F9D1486940051B
:102F90000AD503207047C0F34120022806D051F81B
:102FA000800F40F48070086000207047D1F88000E6
:102FB00040F48070C1F88000086820F4C06040F4DC
:102FC00000700860B2FBF3F0401C00E0401E4A694C
:102FD0005205DBD50028F9D1D8E7000038000020E1
:102FE00040420F00007000400248816841F4804177
:102FF00081607047007000402DE9F8430446006886
:1030000000269D4D00035ED5A86D0027C00008D4A2
:10301000A86D40F08050A865A86D012700F0805091
:103020000090DFF85892D9F8001041F48071C9F887
:103030000010FFF7E3FE804606E000BFFFF7DEFE6C
:10304000A0EB080002282BD8D9F80000C005F5D560
:10305000D5F8900010F4407014D0216C814211D04A
:10306000D5F89000D5F8901020F4407041F48031EC
:10307000C5F89010D5F8901021F48031C5F8901063
:10308000C5F89000C00711D0FFF7B8FE804641F2A6
:10309000883907E0FFF7B2FEA0EB0801494501D9E6
:1030A00003260BE0D5F890008007F3D5D5F8900003
:1030B000216C20F440700843C5F890001FB1A86D42
:1030C00020F08050A8652078C00707D0D5F8880088
:1030D000616820F003000843C5F888002078800765
:1030E00007D5D5F88800A16820F00C000843C5F882
:1030F00088002078400707D5D5F88800E16820F0DF
:1031000030000843C5F888002078000707D5D5F8B7
:103110008800216920F0C0000843C5F888002078A5
:10312000800607D5D5F88800616920F4406008431F
:10313000C5F888002078400607D5D5F88800A16931
:1031400020F440500843C5F888002078000607D5D1
:10315000D5F88800E16920F440400843C5F88800AC
:103160002088C00507D5D5F88800216A20F44030B2
:103170000843C5F888002088800507D5D5F8880061
:10318000616A20F440200843C5F888002088400583
:103190000FD5D5F88800A16A20F440100843C5F87F
:1031A0008800A06AB0F5801F03D1E86840F4801061
:1031B000E860208800050FD5D5F88800E16A20F482
:1031C00040000843C5F88800E06AB0F5800F03D1DD
:1031D000E86840F48010E8602088C0040FD5D5F876
:1031E0008800216B20F040700843C5F88800206BF0
:1031F000B0F1807F03D1E86840F48010E860208857
:103200004FF0006180040ED5D5F88800626B20F085
:1032100040601043C5F88800606B884203D1E868BD
:1032200040F48010E860208840040ED5D5F888006E
:10323000A26B20F040601043C5F88800A06B884264
:1032400003D1E86840F48010E860208800040FD5BE
:10325000D5F88800E16B20F040500843C5F888009D
:10326000E06BB0F1805F03D1E86840F48030E86043
:103270003046BDE8F88300000010024000700040B6
:103280002DE9F0470E4605004FF0000725D0DFF886
:10329000AC81D8F8000000F00F00B0420CD2D8F892
:1032A000001021F00F013143C8F80010D8F80000D9
:1032B00000F00F00B04210D12968614CC80741F2FC
:1032C000883A5AD06868DFF87C91032808D0022831
:1032D00020682DD0400500282CDB0120BDE8F087B8
:1032E00020688001F9D5E06800F00302E068C0F3CF
:1032F0000310401C032A19D0534A00BFB2FBF0F060
:10330000E268C2F306225043E268C2F34162521CF3
:103310005200B0FBF2F0484517D9A06810F0F00F4A
:103320000CD0880711D5A86840B10EE0474AE5E700
:103330008003D0E700F0B6F8484506D9A06820F031
:10334000F00040F08000A0608027A068696820F04D
:1033500003000843A060FFF751FD814606E000BF6F
:10336000FFF74CFDA0EB090151453AD8A068696808
:1033700000F00C00B0EB810FF2D12868810714D562
:10338000400703D5A06840F4E060A06028780007FB
:1033900005D5A06820F4605040F4E060A060A0680B
:1033A000A96820F0F000084304E0802F03D1A06852
:1033B00020F0F000A060D8F80010404601F00F01A6
:1033C000B14216D9016821F00F0131430160FFF7C6
:1033D00015FD074607E000BFFFF710FDC11B514573
:1033E00001D903207AE7D8F8000000F00F00B042BE
:1033F000F2D12878400705D5A068E96820F4E0609C
:103400000843A0602878000706D5A068296920F441
:10341000605040EAC100A06000F044F8A1680C4A86
:10342000C1F30311515C01F01F01C8400949086054
:1034300009480068BDE8F047FFF7FEBC00200240E5
:103440000010024000B4C4040024F40000366E01F1
:10345000A07E0008380000200C0000200548064926
:1034600000688968054AC1F30221515C01F01F011F
:10347000C84070473800002000100240B07E0008AD
:103480000548064900688968054AC1F3C221515CB4
:1034900001F01F01C84070473800002000100240B2
:1034A000B07E0008184910B58868C0F3810217483B
:1034B000012A0BD08A68164BC2F38102022A06D079
:1034C0008A68C2F38102032A03D0002010BD184687
:1034D00010BDCA6802F00304CA68C2F30312521C8A
:1034E000032C02D0B0FBF2F001E0B3FBF2F0CA68AB
:1034F000C968C2F306225043C1F34161491C490027
:10350000B0FBF1F010BD0000001002400024F400F8
:1035100000366E012DE9F84304007AD02078F84D8A
:10352000C00747D0A868E96800F00C0001F003016B
:103530000C2802D0082817D001E0032914D06068B5
:10354000B0F5803F17D0B0F5A02F286817D020F431
:1035500080302860286820F4802028606068E0B10E
:10356000FFF74CFC064614E02868800322D560680B
:103570000028D2D01EE0286840F48030EDE740F407
:1035800080202860F7E700BFFFF738FC801B642825
:1035900070D828688003F7D50CE0FFF72FFC0646AB
:1035A00005E000BFFFF72AFC801B6428F0D82868DC
:1035B0008003F7D4207880074CD5A868E96800F02C
:1035C0000C0001F003010C2802D004280DD001E00A
:1035D00002290AD0E068002828682BD040F48070C7
:1035E0002860FFF70BFC064619E02868400502D565
:1035F000E068002891D06868217C20F0FE4040EA15
:1036000001606860BF480068FFF716FC002800D121
:1036100020E072E1FFF7F2FB801B0228B8D828688F
:103620004005F7D56868217C20F0FE4040EA016043
:1036300068600FE020F480702860FFF7DFFB06462B
:1036400005E000BFFFF7DAFB801B0228A0D828683E
:103650004005F7D42078000729D560690028D5F8FF
:10366000940013D040F00100C5F89400FFF7C6FBAA
:10367000064606E090E000BFFFF7C0FB801B022873
:1036800086D8D5F894008007F6D510E020F0010028
:10369000C5F89400FFF7B2FB064604E0FFF7AEFB67
:1036A000801B022878D8D5F894008007F6D42078BB
:1036B000400761D5A86D0026C00008D4A86D40F071
:1036C0008050A865A86D012600F0805000908E48BB
:1036D0000168C90511D40168804641F48071016018
:1036E000FFF78CFB074604E0FFF788FBC01B0228AE
:1036F00052D8D8F80000C005F6D5A068012815D02A
:103700000528D5F8900016D020F00100C5F89000EB
:10371000D5F8900020F00400C5F89000A06841F2B0
:103720008838B8B1FFF76AFB07460EE0D5F890007D
:1037300040F00100F0E740F00400C5F89000F5E724
:10374000FFF75CFBC11B414526D8D5F890008007E8
:10375000F6D50CE0FFF752FB074604E0FFF74EFBFF
:10376000C11B414518D8D5F890008007F6D41EB18A
:10377000A86D20F08050A8652078800629D5A06922
:103780000028D5F8980013D040F00100C5F8980043
:10379000FFF734FB064606E075E000BFFFF72EFB9F
:1037A000801B02286FD8D5F898008007F6D510E066
:1037B00020F00100C5F89800FFF720FB064604E062
:1037C000FFF71CFB801B02285DD8D5F89800800706
:1037D000F6D4E069F0B3A968C1F3810103295DD093
:1037E0000228286820F08070286003D0FFF706FBCD
:1037F00004464BE0FFF702FB064604E0FFF7FEFA43
:10380000801B02283FD828688001F7D4F4E908011A
:103810006FF00F0202EB01110843218A520449089C
:1038200002EB4151A26841EA02210843217D4FF099
:103830007E42490802EB41610843217B40EAC160B6
:10384000E968324A11400843E860286840F0807017
:10385000286000E05EE0E86840F08070E860FFF714
:10386000CDFA044605E000BFFFF7C8FA001B0228A6
:1038700009D828688001F7D54CE000BFFFF7BEFAF1
:10388000001B022802D90320BDE8F88328688001C4
:10389000F4D4E8681E490840E8603BE00128F3D012
:1038A000E868226A00F00301914226D1616A00F0C3
:1038B000F0020901103991421FD1A26A00F4FE41C1
:1038C000B1EB022F19D194F82C2000F07841B1EB24
:1038D000C26F12D1218E00F4C00249084905A1F53A
:1038E0000011914209D194F8341000F0C0604908E9
:1038F0004906A1F1007181420CD00120C4E700000B
:10390000001002400C000020007000400C809F015D
:10391000FCFFEEFE0020B7E710B5401EB0F1807F3F
:1039200001D3012010BD4FF0E02460610F2160172A
:1039300002F056FC0020A06107202061002010BD8D
:10394000704770477047000030B590F83C20012A5E
:1039500042D0012280F83C20CA688B6822F4407271
:103960001A434B6822F480621A430B6822F4006207
:103970001A430B6922F480521A434B6922F4005215
:103980001A430B6B22F480421A430B8B22F47022F1
:1039900042EA0342CB6922F080521A430F4D03687A
:1039A0000024AB4202D00E4DAB4210D10D8D22F45B
:1039B000700242EA05520D6A22F080722A434D6A73
:1039C00022F000722A43C96A22F000520A435A6464
:1039D00080F83C40002030BD022030BD002C01406A
:1039E000003401407047704770B588B00E4604003F
:1039F00004D094F83D00002518B107E0012008B07C
:103A000070BD84F83C50204600F05CF8022084F839
:103A10003D00211D206801F089FEB3683168032252
:103A2000206802F0ABF82068816921F00C01816107
:103A3000206881697268114381612068416841F0A2
:103A400080014160206881681B4A114081602068C4
:103A5000816841F04001816020688168174A114007
:103A600081602068816841F00401816070200595C3
:103A700004950695039502950090F06801906946BB
:103A8000206801F021FF206841680D4A1140416023
:103A90002068416841F050014160012084F84800ED
:103AA00084F83E0084F83F0084F8440084F8450020
:103AB00084F83D000020A2E78FFFCFFFF8FFFEFF54
:103AC0008FFFFFFD70477047F0B590F83C20012A4A
:103AD0003AD0012580F83C50022280F83D2003684E
:103AE0005A689C68194E1A4FB34201D0BB4204D1A8
:103AF00022F4700C4A6842EA0C02DFF858C002EA6D
:103B00000C02D1F800C04CEA020CC3F804C00268F1
:103B1000B2420DD0B2F1804F0AD00F4B9A4207D07B
:103B20000E4B9A4204D0BA4202D00D4B9A4204D1B5
:103B3000896824F080031943916080F83D5000218A
:103B400080F83C100846F0BD0220F0BD002C01407A
:103B5000003401408FFFFFFD0004004000080040DA
:103B600000400140704710B5040003D094F83D00B8
:103B700010B107E0012010BD002084F83C00204671
:103B800000F022F8022084F83D00211D206801F099
:103B9000CDFD012084F8480084F83E0084F83F0001
:103BA00084F8400084F8410084F8420084F843001F
:103BB00084F8440084F8450084F8460084F84700FF
:103BC00084F83D00002010BD70B586B00446142175
:103BD0006846FCF769FB264A21682648914209D1CC
:103BE000016E41F400610166006E00F40060059012
:103BF00006B070BDB1F1804FFAD1816D41F0010185
:103C00008165816D01F001010591C16C41F00201F6
:103C1000C164C16C01F002010591C16C41F0010168
:103C2000C164C06C022500F0010005904FF4816072
:103C300000900024CDE901540126CDE903466946F0
:103C40000D48FEF7A5FFA8030090CDE90154CDE98A
:103C5000034669464FF09040FEF79AFF0022114656
:103C60001C20FFF731F91C20FFF720F9C0E7000006
:103C7000002C0140001002400004004890F83D1064
:103C8000012901D001207047022180F83D10006811
:103C90000F4988420ED0B0F1804F0BD00D498842B9
:103CA00008D00D49884205D00C49884202D00C4901
:103CB000884207D181680B4A1140062906D0B1F528
:103CC000803F03D0016841F001010160002070478E
:103CD000002C014000040040000800400034014076
:103CE000004001400700010070B5044690F83C0018
:103CF0000025012814D0012684F83C60022084F8B5
:103D00003D0022689068364B184020F47F40906058
:103D1000086870282ED010DC10F00F0F03D021E0BF
:103D20004FF0020070BD4FEA2012072A1AD2DFE8D6
:103D300002F0525252524A3840002A4BC21A98425C
:103D400049D009DCB0F5805F0DD0B0F5005F1CD024
:103D5000B0F1101F06D13EE0102A3CD0202A3AD004
:103D6000502A38D0012584F83D60002084F83C00BA
:103D7000284670BDCB68D1E90121206801F041FDE2
:103D80002068816841F0770109E0CB68D1E9012121
:103D9000206801F036FD2068816841F4804181602F
:103DA000E1E7CA684968206801F0D6FE5021206822
:103DB00006E0CA684968206801F016FF60212068A3
:103DC00001F02AFDCFE7CA684968206801F0C4FE07
:103DD00040212068F4E7226801461046F0E7000021
:103DE00088FFCEFF2000100070B53A49884244D1C8
:103DF0003A4C9FED390A4FF4004184ED020AA07855
:103E0000E062002060604FF09040FEF7E5FF344E26
:103E1000850008213046FEF7DFFF45EA40054FF4F4
:103E200080613046FEF7D8FF0543E9B204F148004F
:103E3000A170D0ED020A3205C4ED0A0A526B294B7B
:103E4000B6EE001AB3FBF2F200EE102A0729B8EE24
:103E5000400A20EE010A00EE810A80ED020A0CD22F
:103E6000DFE801F00B040C141C242C00DFED1E0A0B
:103E7000C0ED010AE16A052927D070BDDFED1B0AFC
:103E8000C0ED010AE16A03291FD070BDDFED180AF9
:103E9000C0ED010AE16A012917D070BDDFED150AF6
:103EA000C0ED010AE16A06290FD070BDDFED120AEC
:103EB000C0ED010AE16A042907D070BDF3EE0E0AD5
:103EC000C0ED010AE16A0229F7D1B1EE400A80EDA6
:103ED000020A70BD88030020000000003C000020A2
:103EE0000004004858F8A932000052430000B442D0
:103EF000000016430000A5430000874330B5044688
:103F0000002571B1042911D0082914D00C2917D02B
:103F1000102918D094F8430094F84720012817D1AD
:103F200014E094F83E0094F84420F7E794F83F003A
:103F300094F84520F2E794F8400094F84620EDE725
:103F400094F84100E8E794F84200E5E7012A01D03F
:103F5000012030BD022079B1042916D008291DD0D6
:103F60000C2949D010294AD084F8430084F847002E
:103F70000C2947D001253DE084F83E0084F8440038
:103F80002068C26842F0020210E084F83F0084F822
:103F900045002068C26842F0040207E084F840004F
:103FA00084F846002068C26842F00802C26001221C
:103FB000206801F019FC1649206888420ED0B0F143
:103FC000804F0BD01349884208D01349884205D04E
:103FD0001249884202D01249884207D18168114AA9
:103FE0001140062906D0B1F5803F03D0016841F0A9
:103FF00001010160284630BD84F84100B6E784F82D
:104000004200B3E72068C26842F01002CEE7000029
:10401000002C014000040040000800400034014032
:1040200000400140070001002DE9F041044600680E
:10403000C66805694FF00007A90713D5B10711D568
:10404000F91E0161012020772068806980072046E1
:1040500002D0FFF7C9FE04E000F0E2F8204600F0CD
:10406000A4F92777680716D5700714D521686FF073
:1040700004000861022020772068806910F4407FE6
:10408000204602D0FFF7B0FE04E000F0C9F8204659
:1040900000F08BF92777280715D5300713D521684D
:1040A0006FF008000861042020772068C06980074D
:1040B000204602D0FFF798FE04E000F0B1F8204659
:1040C00000F073F92777E80616D5F00614D52168B5
:1040D0006FF010000861082020772068C06910F494
:1040E000407F204602D0FFF77FFE04E000F098F802
:1040F000204600F05AF92777E80708D0F00706D0E5
:1041000021686FF001000861204600F0CDF9280613
:1041100001D4A80408D5300606D521686FF40250F2
:1041200008612046FFF70DFCE80508D5300606D5E6
:1041300021686FF4807008612046FFF701FC680673
:1041400008D5700606D521686FF04000086120464A
:1041500000F0ABF9A80608D5B00606D521686FF0C7
:10416000200008612046FFF7EDFBE80208D5F002C9
:1041700006D521686FF4801008612046FFF733FCF4
:10418000A80208D5B00206D521686FF400100861B6
:104190002046FFF727FC680208D5700206D5216883
:1041A0006FF4800008612046FFF78DFC28020AD5D5
:1041B000300208D521686FF4000008612046BDE890
:1041C000F041FFF7CFBCBDE8F081000010B586B02C
:1041D000044614216846FCF767F80F4920688842B6
:1041E00017D10E48C16C41F00101C164C06C694631
:1041F00000F0010005904FF4E06000900220019073
:10420000002002900390062004904FF09040FEF7AB
:10421000BFFC06B010BD0000002C014000100240A1
:10422000704770B5044690F83C0000260D46012802
:104230000BD0012084F83C000C2A4AD007DC82B164
:10424000042A20D0082A06D131E0022070BD102AAD
:1042500053D0142A63D00126002084F83C00304655
:1042600070BD206801F0E2FA2068816941F0080120
:1042700081612068816921F0040181612068816980
:104280002A69114311E0206801F01EFB2068816952
:1042900041F4006181612068816921F4806181615C
:1042A000206881692A6941EA02218161D4E7206896
:1042B00001F052FB2068C16941F00801C16120682A
:1042C000C16921F00401C1612068C1692A691143F3
:1042D00011E0206801F088FB2068C16941F40061A9
:1042E000C1612068C16921F48061C1612068C16930
:1042F0002A6941EA0221C161AEE7206801F0BCFBF6
:104300002068016D41F0080101652068016D21F010
:10431000040101652068016D2A69114311E02068DC
:1043200001F0E2FB2068016D41F400610165206845
:10433000016D21F4806101652068016D2A6941EAFF
:104340000221016588E710B5040003D094F83D0010
:1043500010B107E0012010BD002084F83C00204689
:1043600000F022F8022084F83D00211D206801F0B1
:10437000DDF9012084F8480084F83E0084F83F000D
:1043800084F8400084F8410084F8420084F8430037
:1043900084F8440084F8450084F8460084F8470017
:1043A00084F83D00002010BD7047704730B50446CA
:1043B000022269B1042912D0082917D00C291CD077
:1043C000102921D094F84300012824D0012030BDC9
:1043D00094F83E000128F9D184F83E201DE094F8BD
:1043E0003F000128F2D184F83F2016E094F8400005
:1043F0000128EBD184F840200FE094F84100012817
:10440000E4D184F8412008E094F842000128DDD18D
:1044100084F8422001E084F843200122206801F062
:10442000E3F9194B20681949194A984209D0884282
:1044300007D0904205D0174DA84202D0164DA84291
:1044400003D1456C45F400454564206898420CD082
:10445000B0F1804F09D0114B984206D0104B9842D2
:1044600003D0884201D0904207D181680D4A1140A3
:10447000062906D0B1F5803F03D0016841F0010163
:104480000160002030BD0000002C014000340140DC
:104490000040014000440140004801400004004049
:1044A00000080040070001007047704790F8841032
:1044B000012918D0012180F884102421C0F8881027
:1044C00001680A680B6823F001030B6022F00051B9
:1044D00000224266036819602021C0F8881080F825
:1044E000842010467047022070477047704770B5AF
:1044F000044690F8840001281DD0012084F884002F
:104500002420C4F8880020680568026822F00102AF
:1045100002602068826822F060620A43826020465E
:1045200001F09CFB206805602020C4F88800002072
:1045300084F8840070BD022070BD70B5044690F808
:10454000840001281DD0012084F884002420C4F8B0
:10455000880020680568026822F001020260206875
:10456000826822F060420A438260204601F076FBB6
:10457000206805602020C4F88800002084F88400AA
:1045800070BD022070BD7047704770472DE9F04143
:1045900003680446D86919689A6840F60F052842EE
:1045A0004FF000054FF002060AD187067ED501F0D4
:1045B000200702F0805C57EA0C0777D0616F42E178
:1045C000B64FDFF8DCC2174001EA0C0C57EA0C0CBE
:1045D0006CD05FEAC07C0CD05FEAC15C09D54FF0BB
:1045E000010CC3F820C0D4F8903043F00103C4F8A4
:1045F0009030830709D5D30707D023681E62D4F80B
:10460000903043F00403C4F8903043070AD5D30731
:1046100008D0266804233362D4F8903043F00203B4
:10462000C4F8903003070CD501F020033B4308D0B9
:10463000266808233362D4F8903043F00803C4F8A6
:10464000903003050BD54B0109D526684FF4006364
:104650003362D4F8903043F02003C4F89030D4F89B
:104660009030002B3DD0800609D501F0200002F0EB
:104670008051084303D0616F09B120468847D4F8C0
:10468000900021688968490602D410F0280F2AD0CA
:10469000204601F0C7FB2068806840061ED52068D0
:1046A000083050E8001F21F0400100E021E040E820
:1046B0000012002AF3D1D4F8800078B179498163DF
:1046C000D4F88000FDF79DFF00280AD0D4F88000C0
:1046D000816B00E02046BDE8F04108472046FFF727
:1046E00054FFBDE8F0812046FFF74FFFC4F890501B
:1046F000F7E7D4F86CC02027BCF1010F7ED15FEA48
:10470000C06C7BD55FEAC16C78D510201862206838
:104710008068400651D5D4F880100A6850680004BB
:10472000000C3ED0B4F85C3083423AD9A4F85E0065
:104730000868006880062CD4216851E8000F20F436
:10474000807041E80002002AF6D12068083050E865
:10475000001F21F0010140E80012002AF5D1206875
:10476000083050E8001F21F0400140E80012002A04
:10477000F5D1C4F88C70E566216851E8000F20F08F
:10478000100041E80002002AF6D1D4F88000FDF7BD
:1047900003FF2667B4F85C00B4F85E10401A81B2DB
:1047A00007E0B4F85C1081429BD11068800698D570
:1047B00026672046FFF799FE93E7B4F85C00B4F84B
:1047C0005E10401A81B2B4F85E00002889D000293A
:1047D00087D0226852E8000F20F4907042E800036E
:1047E000002BF6D12D4BDB432068083050E8002F1A
:1047F0001A4040E8002CBCF1000F00E00EE0F3D1BD
:10480000C4F88C70E5666567206850E8002F22F0D8
:10481000100240E80023002BF6D1C9E7C60209D5F3
:10482000560207D54FF4801018622046BDE8F041CB
:10483000FFF7AABE03060AD501F0800302F40002C6
:10484000134304D0A16F00297FF444AF49E7420627
:1048500011D54A060FD52046016851E8002F22F0F5
:10486000400241E80023002BF6D1C0F8887085672C
:1048700000F005F935E7020206D54A0004D52046C6
:10488000BDE8F041FFF77FBEC00195D5002993DA5E
:104890002046BDE8F041FFF729BE000001000010EE
:1048A00020010004155E000810B5040003D0D4F800
:1048B000880010B107E0012010BD002084F88400BA
:1048C000204600F027F82420C4F8880020680168FA
:1048D00021F001010160A06A10B1204601F0E0F969
:1048E000204601F0C9FA0128E6D02068416821F489
:1048F000904141602068816821F02A018160206830
:10490000016841F0010101602046BDE8104001F05E
:104910002BBA000070B598B00646142111A8FBF719
:10492000C3FC44216846FBF7BFFC25493068884238
:1049300043D102240025684602950094FEF75CFBF3
:1049400008B1FCF723FA1F49886D40F400308865F0
:10495000886D00F400301690C86C40F00100C86407
:10496000C86C11A900F0010016900C2081E83100FC
:104970000720CDE914504FF09040FEF709F9134C91
:10498000114820601B2060601020C4E902058020CF
:10499000C4E90405A561E56120462562FDF7CAFE6C
:1049A00008B1FCF7F3F9F467002211462620A6624D
:1049B000FEF78AFA2620FEF779FA18B070BD0000DB
:1049C0000044004000100240300002406804002013
:1049D0002DE9F8430446D0F88800984616460D465F
:1049E000202802D00220BDE8F883A5B19EB10020A6
:1049F000C4F890002120C4F888001834FEF7FEF9AE
:104A0000A6878146E68754F8100C2027183CB0F59D
:104A1000805F02D003E00120E5E7206910B12E4657
:104A2000002510E000260EE08021204601F05EFB0C
:104A3000C0B9DEB116F8010B21688862B4F85600DF
:104A4000401EA4F85600B4F856004B464FF0000242
:104A5000CDF800800028E7D14FF04001204601F05A
:104A600045FB40B1C4F888700320BCE735F8020B61
:104A7000C0F30800E0E7C4F888700020B3E770478F
:104A8000FEE700EB8100006E00F0F84070478068A0
:104A9000C0F3C00070478068C0F380007047806832
:104AA000C0F380007047C06810F4406F01D0002050
:104AB000704701207047042303EAD15310B518440E
:104AC0004369C1F3045107248C40A3438A40134334
:104AD000436110BD00EB8100016E21F000411143E4
:104AE0000166704790ED190AB6EE001ADFED0E1A56
:104AF00020EE010AB3EE0E1ADFED0A0A20EE010ADB
:104B000090ED061A61EE211A80EE211A90ED0E0A40
:104B100031EE401A01EE200A80ED0D0A80ED0E0AFA
:104B2000704700006F12033CDB0F494070B58CB03A
:104B3000002408940994202168460A94FBF7B4FBEA
:104B40002F484FF0A041012501604FF44031C0E9EA
:104B50000114C46008210461C0E905510477447759
:104B60000426066280F824404FF4A461C162A902C1
:104B7000016380F83850C46380F84040FDF760FA64
:104B800008B1FCF703F908A91D480894FCF764FA7A
:104B900008B1FCF7FBF81B4800900620CDE90105A1
:104BA0007F200594CDE9030669461548FCF7C0FA55
:104BB00008B1FCF7EBF8144800900C20019069460E
:104BC0000F48FCF7B5FA08B1FCF7E0F80F48009081
:104BD0001220019069460A48FCF7AAFA08B1FCF7CE
:104BE000D5F80B4800901820019069460448FCF75E
:104BF0009FFA002801D0FCF7C9F80CB070BD000086
:104C00007C010020020030048000501D400020196B
:104C10000010603270B588B020216846FBF744FB75
:104C200021482049002401604FF44031C0E90114BB
:104C300000F1100101250426C46081E870000477AA
:104C400044770221016280F824404FF4A461C162DC
:104C5000A902016380F83840C46380F84040FDF742
:104C6000EFF908B1FCF792F8104800900620CDE962
:104C700001057F200594CDE9030669460A48FCF743
:104C800057FA08B1FCF782F8094800900C2001900F
:104C900069460548FCF74CFA002801D0FCF776F885
:104CA00008B070BD00010050E80100200400600859
:104CB00000018021074910B5054808600846FDF746
:104CC0003DFC002803D0BDE81040FCF75FB810BDE4
:104CD000000C024014030020154808B5816C41F017
:104CE00004018164816C01F004010091816C41F048
:104CF00001018164806C002200F0010000901146E7
:104D00000B20FEF7E1F80B20FEF7D0F80022114649
:104D10000C20FEF7D9F80C20FEF7C8F80022114647
:104D20000D20FEF7D1F8BDE808400D20FEF7BEB813
:104D3000001002402DE9F04387B014216846FBF7CC
:104D4000B3FA3948C16C41F00401C164C16C01F08F
:104D500004010591C16C41F02001C164C16C01F0F6
:104D600020010591C16C41F00101C164C16C01F0E9
:104D700001010591C16C41F00201C164C06C4FF0AA
:104D8000904700F002000590002240213846FEF7CF
:104D900030F8DFF89880002204214046FEF729F819
:104DA000DFF88C904FF4E056002231464846FEF77B
:104DB00020F84FF4005000904FF444100024CDE947
:104DC000010469464846FDF7E3FE402000901120AB
:104DD000CDE90104694638460394FDF7D9FE042065
:104DE00000900125CDE90154694640460394FDF742
:104DF000CFFEE802CDE90004694638460294FDF78B
:104E0000C7FE0096CDE90154694648460394FDF774
:104E1000BFFE002211462820FEF756F82820FEF794
:104E200045F807B0BDE8F0830010024000040048D8
:104E30000008004830B59BB0002419941A941794C8
:104E40001894149415941C210DA81694FBF72CFAB1
:104E500034216846FBF728FA34483349202580E896
:104E6000320042F23411C0E903140121C0E90514F3
:104E7000FEF779FE08B1FBF789FF4FF480501790D9
:104E800017A92A48FEF730FF08B1FBF77FFF274834
:104E9000FFF759FA08B1FBF779FFCDE9145414A9CB
:104EA00022481694FEF710FE08B1FBF76FFF702042
:104EB000CDE90D040F9410941194129400220DA9C1
:104EC0001A481394FFF7ADF908B1FBF75FFF04220E
:104ED0000DA91648FFF7A5F908B1FBF757FF0822FF
:104EE0000DA91248FFF79DF908B1FBF74FFF009499
:104EF0004FF40050CDE9044003940003CDE908408D
:104F000001940294069407940A940B946946074806
:104F10000C94FEF719FD08B1FBF738FF0348FFF7C3
:104F200055F91BB030BD0000002C01403C030020AF
:104F300010B58CB0002405941D4804940694079481
:104F40000094039401940294089409944FF08041D2
:104F50000A94C0E90014611EC0E902410461846141
:104F6000FEF701FE08B1FBF711FF4FF480500490EB
:104F700004A90F48FEF7B8FE08B1FBF707FF00943D
:104F80000194029469460A480394FEF72DFD08B186
:104F9000FBF7FCFE5020089008A90A940448FEF78D
:104FA00093FD002801D0FBF7F1FE0CB010BD00000E
:104FB00088030020184810B5164901604FF4E1310C
:104FC0004160002181600C22C160C0E9041281614E
:104FD000C161016241628162FFF766FC08B1FBF7C3
:104FE000D5FE00210C48FFF7A8FA08B1FBF7CEFE6A
:104FF00000210948FFF77BFA08B1FBF7C7FE064816
:10500000FFF754FA002803D0BDE81040FBF7BEBEFE
:1050100010BD000000440040D4030020FEE7FEE77E
:105020009FED0C0A80ED040A9FED0B0A80ED160A35
:10503000B7EE000A80ED170A9FED080A80ED000A1E
:1050400080ED020A80ED010A80ED030A80ED0A0A74
:1050500070470000007C9248CDCC4C3E0000000020
:1050600090ED021A70EEC00A80ED031A2249C0EDDD
:10507000020A90ED040A90ED011A204BF9EE081A8D
:1050800001EE200A80ED040A90ED001A10EE102ABD
:1050900061EE200AB1EE081A8A42C0ED050A02DD6F
:1050A00080ED041A05E010EE102A9A4201D9C0EDF5
:1050B000041A10EE902A8A4202DD80ED051A05E0FE
:1050C00010EE902A9A4201D9C0ED051A90ED050A1A
:1050D000D0ED040A30EE200A10EE102A80ED060A08
:1050E0008A4202DD80ED061A704710EE101A9942CE
:1050F000FAD9C0ED061A70470000C0400000C0C0D9
:1051000010B5012240214FF09040FDF772FE094C8E
:10511000012291022046FDF76CFE0122D1022046B9
:10512000FDF767FE20460122BDE810401103FDF7A0
:1051300060BE00000008004810B5002240214FF07A
:105140009040FDF756FE0A4C00224FF48061204645
:10515000FDF74FFE00224FF400612046FDF749FEA7
:105160002046BDE8104000224FF48051FDF741BEBB
:10517000000800483CB504460D46684600F046FD70
:105180009DED010AD4ED000A94ED011A20EE200AEB
:10519000DDED000A00EE810A85ED010A9DED010AB0
:1051A000D4ED010A94ED001A20EE200ADDED000A8C
:1051B00000EEC10A85ED000A3CBD70472DE9F041C3
:1051C0004FF400614FF09040FDF706FE1E4E0125A2
:1051D00000B935711D4FDFED1E0A1B4C97ED000A1B
:1051E00014341C49B8EE400A20EE200A10EE100AD2
:1051F00084ED340A884201DD757005E010EE100A76
:105200001549884202DAB570FFF796FF786802F018
:10521000FBFD10EE100A114984ED2D0A884202DDD3
:105220003570FFF789FF0E48216C814205DC616C07
:10523000814202DCA16C814204DDF570BDE8F041E1
:10524000FFF77ABFBDE8F081700000200000002069
:105250004C655E3C0000C0410000C0400000A04220
:105260000000204170B504462DED088B0D4690EDF1
:10527000000AB0EEC00A10EE100AFBF736F941EC56
:10528000100B9FED92ABB0EE4A1AF0EE6A1A01F0E5
:105290003BF851EC100BFBF73BF994ED010A09EEDA
:1052A000900AB0EEC00A10EE100AFBF71EF941ECAE
:1052B000100BB0EE4A1AF0EE6A1A01F025F851EC24
:1052C000100BFBF725F994ED020A09EE100AB0EE77
:1052D000C00A10EE100AFBF708F941EC100BB0EE13
:1052E0004A1AF0EE6A1A01F00FF851EC100BFBF7B6
:1052F0000FF994ED030A08EE900AB0EEC00A10EE22
:10530000100AFBF7F2F841EC100BB0EE4A1AF0EE7F
:105310006A1A00F0F9FF51EC100BFBF7F9F894ED65
:10532000040A08EE100AB0EEC00A10EE100AFBF7ED
:10533000DCF841EC100BB0EE4A1AF0EE6A1A00F0FD
:10534000E3FF51EC100BFBF7E3F894ED003AD4EDDA
:10535000013AD5ED016AC9EE831AD5ED005AF1EE96
:10536000002A94ED024A25EEA26A26EEA2BAD4EDF6
:10537000034A0AEE100A94ED045A89EE231A26EE27
:10538000A17A06EE617A95ED026A66EE217AC8EEA0
:10539000840A45EE817A37EE877AD5ED037A67EE97
:1053A000A1AA88EE240A4BEE41AA7AEE87AA95EDCF
:1053B000047A27EE21BA8AEE052A06EE01BA7BEEC0
:1053C0002AAA25EEA0BA07EE81BA7BEE2AAA26EE1B
:1053D000A0BA07EE01BA3BEE2ABAF9EE00AA66EED1
:1053E0002ABA6BEEA0BA45EE80BA65EE825A3BEE61
:1053F0008BBA67EEA0BA46EE80BA66EE826A47EED6
:10540000006A3BEE8BBA67EE20BA46EE00BA26EE93
:10541000026A07EE826A3BEE8BBA67EEA2BA4BEEE7
:10542000C05A75EE8B5A76EEA55A68EE2A6A76EE69
:10543000255A27EE2A6A4AEE626A46EE025A23EE9F
:10544000A16A49EEE26A09EE626A08EEE26A76EE65
:10545000862A23EE016A04EE216A76EE222A24EEE1
:10546000A16A65EE211A03EE206A44EE011A76EE77
:10547000222A71EEA21A63EEA02ABDEC088B44EE3C
:10548000812A72EEA11A63EE002A45EE012A32EE5D
:10549000A11A63EE801A44EEA01A65EE200A43EECC
:1054A000820A31EE811A63EE021A44EE001A31EEDE
:1054B000811A70EE810A24EE021A05EE001A71EECE
:1054C000200A44EE820A85EEA00A70BD00000000AA
:1054D000000000407047000030B5DFED6B0A00238C
:1054E00090ED010AD0ED002AB0EE601A1A46194676
:1054F0009FED663ABEEE002AB6EE004A62EE831ACF
:1055000020EE022AB5EEC00A40EE441A02EEC32A8B
:10551000F1EE10FA01DD012000E00020F5EEC01AE6
:10552000F1EE10FA01DD012400E00024B5EEC02AFE
:1055300040EA4404F1EE10FA01DD012000E0002011
:1055400044EA8000DFED524A524C60EE241AD4ED5A
:10555000353A81EEA32ADFED501A20EE044A0728DF
:10556000B0EE440A02EEC34A02EE830A64EE242A35
:1055700020EE245A82EEA33A22EE212A85EE230A57
:1055800063EE212A20EE210A22D2DFE800F0210476
:10559000090E13181D00B0EE621AF0EE400A17E073
:1055A000B0EE401AF1EE420A12E0B1EE621AF0EEED
:1055B000420A0DE0B1EE421AF0EE620A08E0B0EEE7
:1055C000421AF1EE400A03E0B1EE401AF1EE620A2F
:1055D000324D31EE200A10EE104AAC4209DD81EE68
:1055E000002A22EE210A30EE201A80EE810A20EEF7
:1055F000211AB5EE002A072831EEC10A71EE211AF0
:1056000030EE600A31EEE01A71EEA00A20EE020AD6
:1056100021EE021A60EE820ABDEEC00ABDEEC11A8A
:10562000FDEEE00A28D2DFE800F02704090E151A83
:10563000210011EE103A10EE102A08E010EE103A98
:1056400010EE902A0FE010EE103A11EE102A10EE34
:10565000901A11E010EE903A11EE102A0AE010EEC6
:10566000903A10EE102A11EE101A05E011EE103AE1
:1056700010EE902A10EE101A09480468636303685C
:105680009A630068C16330BD00000000D7B35D3F7E
:10569000D7B3DD3F8400002000D0844600D084468C
:1056A0003C030020FDF7B0BB10B594B0382168462C
:1056B000FAF7FAFD14210EA8FAF7F6FD0020FDF71F
:1056C00035FC012000900004032406210190CDE95F
:1056D000084102205521CDE90A1007900C900D9049
:1056E0006846FDF717FF08B172B6FEE70F20CDE957
:1056F0000E04002010901190129004210EA8FDF7C6
:10570000BFFD002801D072B6FEE714B010BD000046
:105710000248016841F470010160704788ED00E0C3
:105720000148FEF781BC0000880300202DE9F0430A
:105730000268264B264D274E274C4FF08049984251
:1057400007D0484505D0A84203D0B04201D0A042BE
:1057500003D122F070074A683A43204FDFF880C037
:10576000DFF8808098420DD048450BD0A84209D080
:10577000B04207D0A04205D0B84203D0604501D066
:10578000404503D122F44075CA682A434D6922F08E
:1057900080022A4302608A68C2620A688262984272
:1057A00007D0A04205D0B84203D0604501D04045A3
:1057B00001D109690163012141610169C90703D070
:1057C000016921F001010161BDE8F083002C014075
:1057D0000004004000080040003401400040014047
:1057E000004401400048014010B501F01F030121B1
:1057F000046A99408C430462016A9A401143016231
:1058000010BD10B5846842EA032224F47F440A43A1
:105810002243826010BD00008268034B1A400A4395
:1058200042F00701816070478FFFCFFF2DE9F04301
:10583000056A026A22F001020262436882691C4C16
:1058400025F0020522400C6822F0030214438A6806
:10585000194E2A43174D194FDFF864C0DFF86490E2
:10586000A84207D0B04205D0B84203D0604501D06D
:10587000484506D122F00808CA6842EA080222F028
:105880000402A84207D0B04205D0B84203D0604518
:1058900001D0484505D14D6923F440731D438B6900
:1058A0002B4343608461496841630262BDE8F08331
:1058B0008FFFFEFF002C01400034014000400140FA
:1058C0000044014000480140F0B5056A026A22F038
:1058D0001002026242688369194C1B4E23400C6817
:1058E00023F4407343EA042425F020038D6843EA3F
:1058F0000513144DA84201D0B04206D1CF6823F061
:10590000800343EA071323F04003A8420AD0B042C1
:1059100008D00E4DA84205D00D4DA84202D00D4D25
:10592000A84207D14D6922F4406242EA85028D699E
:1059300042EA850242608461496881630362F0BD86
:10594000FF8FFFFE002C0140003401400040014069
:105950000044014000480140F0B5056A026A22F4A3
:10596000807202624368C269194C1B4E22400C6867
:1059700022F00302144325F400728D6842EA0522E6
:10598000144DA84201D0B04206D1CF6822F4006283
:1059900042EA072222F48062A8420AD0B04208D02C
:1059A0000E4DA84205D00E4DA84202D00D4DA84282
:1059B00007D14D6923F4405343EA05138D6943EA47
:1059C00005134360C4614968C1630262F0BD000011
:1059D0008FFFFEFF002C01400034014000400140D9
:1059E0000044014000480140F0B5056A026A22F413
:1059F000805202624268C369194C1B4E23400C68F6
:105A000023F4407343EA042425F400538D6843EAE9
:105A10000533144DA84201D0B04206D1CF6823F41B
:105A2000004343EA073323F48043A8420AD0B0423C
:105A300008D00E4DA84205D00D4DA84202D00D4D04
:105A4000A84207D14D6922F4404242EA85128D698D
:105A500042EA85124260C461496801640362F0BD94
:105A6000FF8FFFFE002C0140003401400040014048
:105A7000004401400048014030B5056A026A22F442
:105A8000803202624268036D114C23400C681C4353
:105A900025F400330D8943EA05430E4DA8420BD08F
:105AA0000D4DA84208D00D4DA84205D00C4DA8427E
:105AB00002D00C4DA84204D14D6922F4803242EA52
:105AC00005224260046549688164036230BD0000BC
:105AD0008FFFFEFF002C01400034014000400140D8
